:020000040800F2
:10000000002800201D190008590A00085B0A000892
:100010005D0A00085F0A0008610A0008000000008D
:10002000000000000000000000000000630A00085B
:10003000650A000800000000670A0008690A000855
:100040006519000865190008651900086519000898
:100050006519000865190008651900086519000888
:100060006519000865190008651900086519000878
:100070006519000865190008651900086519000868
:100080006519000865190008651900086519000858
:100090006519000865190008651900086519000848
:1000A0006519000865190008651900086519000838
:1000B000710A0008651900080000000065190008B1
:1000C0006519000800000000000000006519000824
:1000D0000000000065190008651900080000000014
:1000E000651900086519000865190008000000007E
:1000F0000000000000000000000000000000000000
:0C01000000000000000000005FF808F1A3
:10010C0010B5054C237833B9044B13B10448AFF345
:10011C0000800123237010BD10000020000000009F
:10012C00C019000808B5034B1BB103490348AFF3D2
:10013C00008008BD0000000014000020C019000859
:10014C002DE9F04186B000240294039404940594A4
:10015C00204B9A6942F004029A619A6902F00402F7
:10016C000092009A9A6942F008029A619B6903F026
:10017C0008030193019BDFF8608022464FF6FF7164
:10018C00404601F048FB154D22467F21284601F0E0
:10019C0042FB4FF6FF730293012603960494022749
:1001AC00059702A9404601F01FFA7F23029303969C
:1001BC000494059702A9284601F016FA4FF4E0437F
:1001CC0002930394049602A9284601F00DFA06B096
:1001DC00BDE8F0810010024000080140000C014015
:1001EC00234B1B6803B9704770B505460C46214E6E
:1001FC00307800F080FA33780133DBB23370032BA4
:10020C0001D9002232701B4B1B78032B09D8DFE875
:10021C0003F002101C231848A0FB0530C00800F0A6
:10022C0089F9144B187800F053FA322000F0D2FA06
:10023C0070BD1148A0FB0530C00800EB8000A5EB99
:10024C004000C0B200F076F9EBE70B49A1FB04319A
:10025C00C80800F06FF9E4E70749A1FB0431C908AD
:10026C0001EB8101A4EB4101C8B200F063F9D8E7BE
:10027C008400002074000020CDCCCCCC08B50368E1
:10028C00B3F1804F00D008BD00F0AEFA00F0D0FA08
:10029C00F9E772B6FEE7000000B587B000230293C1
:1002AC000393049305930093019314484FF08042F9
:1002BC00026041F63F72426083600922C2600361B2
:1002CC00836100F05DFD90B94FF48053029302A955
:1002DC000A4800F08DFD60B9002300930193694634
:1002EC00064800F005FE30B907B05DF804FBFFF7D7
:1002FC00D0FFFFF7CEFFFFF7CCFF00BF2C00002094
:10030C0000B591B02822002106A801F04BFB002378
:10031C000193029303930493059302230693012301
:10032C000A9310230B9306A800F076FE68B90F23EE
:10033C0001930021029103910491059101A801F010
:10034C009DF820B911B05DF804FBFFF7A2FFFFF791
:10035C00A0FF0000F8B500F025FEFFF7D1FFFFF776
:10036C00EFFEFFF799FF554800F0E6FB0025544BD4
:10037C001D7000F0D3F900F0A1F9642000F020FA10
:10038C00322000F027FA04272E464CE000F0ECF95E
:10039C004C4B19784A4B1878FFF722FF53E000F0CA
:1003AC00F1F9494B1978464B1878FFF719FF4AE0D9
:1003BC0000F0F6F9454B1978414B1878FFF710FF10
:1003CC0041E0434B1B6853B305B10EBB032F08D858
:1003DC000137FFB2032F1BD8DFE807F00239496061
:1003EC003C4600F09BF93B4D00220121284601F0D0
:1003FC0012FA00224FF40071284601F00CFA314B2E
:10040C001D780135EDB2314B1E780136F6B2274618
:10041C00013DEDB2013EF6B2642000F0D1F9314657
:10042C002846FFF7DDFE00F091FA254B1C78002CD6
:10043C00C7D0274B1B68002BF5D0022CAFD0032C58
:10044C00B6D0012CA2D0322000F0BAF9EBE700F0C4
:10045C0065F9204C00220121204601F0DCF9002234
:10046C002021204601F0D7F9174B1E78D0E700F079
:10047C0055F9184C00224FF48071204601F0CBF94D
:10048C0000220221204601F0C6F9104B1D780135DF
:10049C00EDB20C4B1E780136F6B2B9E700F03EF91E
:1004AC000C4C00221021204601F0B5F9002202214B
:1004BC00204601F0B0F9044B1D78A9E72C00002070
:1004CC00030000200100002002000020000000209A
:1004DC007C00002000080140F8B50F4616461D466A
:1004EC00134C02460121204601F095F93A460221AF
:1004FC00204601F090F932460421204601F08BF998
:10050C002A460821204601F086F99DF81820102172
:10051C00204601F080F99DF81C202021204601F096
:10052C007AF99DF820204021204601F074F9F8BD9D
:10053C00000C014000B585B0092810D8DFE800F0A8
:10054C0005121C26313B454F5963012302930020B1
:10055C0001900090034602460146FFF7BDFF05B02F
:10056C005DF804FB012002900190009003460022EC
:10057C001146FFF7B1FFF2E7002002900122019231
:10058C00009003460146FFF7A7FFE8E70020029022
:10059C00012301930093034602460146FFF79CFF9B
:1005AC00DDE70021029101910120009003460A46EB
:1005BC00FFF792FFD3E700200290019001210091F8
:1005CC0003460246FFF788FFC9E70020029001901E
:1005DC000090034602460121FFF77EFFBFE701238F
:1005EC00029301930093002211461046FFF774FF0B
:1005FC00B5E70020029001900090034602460146A8
:10060C00FFF76AFFABE700200290019001230093F3
:10061C00034602460146FFF75FFFA0E708B500223C
:10062C004FF40051014801F0F6F808BD00080140F4
:10063C0008B501224FF40051014801F0ECF808BD57
:10064C000008014008B500224FF48041014801F038
:10065C00E2F808BD0008014008B501224FF48041C2
:10066C00014801F0D8F808BD0008014008B5002287
:10067C004FF40041014801F0CEF808BD00080140DC
:10068C0008B501224FF40041014801F0C4F808BD3F
:10069C000008014008B500224FF48051014801F0D8
:1006AC00BAF808BD0008014008B501224FF480518A
:1006BC00014801F0B0F808BD0008014008B5FFF78B
:1006CC00B7FFFFF7C9FFFFF7DBFFFFF7EDFF08BD33
:1006DC0008B5032805D8DFE800F00205080BFFF782
:1006EC009DFF08BDFFF7AEFFFBE7FFF7BFFFF8E785
:1006FC00FFF7D0FFF5E708B5032805D8DFE800F0D1
:10070C000205080BFFF794FF08BDFFF7A5FFFBE7F9
:10071C00FFF7B6FFF8E7FFF7C7FFF5E710B5114C89
:10072C0001221146204601F076F8012202212046D2
:10073C0001F071F801221021204601F06CF8012221
:10074C002021204601F067F801224FF480712046E9
:10075C0001F061F801224FF40071204601F05BF8C2
:10076C0010BD00BF0008014010B5054C012120460A
:10077C0001F057F80221204601F053F810BD00BFDC
:10078C000008014010B5054C1021204601F049F835
:10079C002021204601F045F810BD00BF00080140A3
:1007AC0010B5064C4FF48071204601F03AF84FF426
:1007BC000071204601F035F810BD00BF0008014063
:1007CC00024B1860024B00221A6070477800002020
:1007DC007C000020024B1860024B00221A6070470C
:1007EC0080000020840000200D4B1B68002B04DDD2
:1007FC00013B0B4A1360002B09DD0A4B1B68002BD5
:10080C0004DD013B074A1360002B04DD7047064BE7
:10081C0001221A60F1E7054B01221A60F6E700BFCE
:10082C0078000020800000207C0000208400002044
:10083C00F8B500240EE0184B18551EE0174B01229A
:10084C00DA5505E00023164A22F81730134AD3551F
:10085C000134E4B2022C1ED82746124E335D124DE1
:10086C002B55124B33F81410114B53F8240000F095
:10087C00CBFF30552B5D9842DDD0074BDB5D002B59
:10088C00E0D1074B33F81730632BD7D80133044A28
:10089C0022F81730DCE7F8BD880000209C0000200F
:1008AC008C0000209400002098000020D81900082B
:1008BC00E0190008022805D8034B185CC0F10100B0
:1008CC00C0B2704700207047880000201B4B1B787B
:1008DC00022B14D0032B21D0012B00D07047184AC7
:1008EC0013780133DBB2137016490A7801320A709F
:1008FC00632BF3D90023124A13700B707047124A02
:10090C0013780133DBB213700D490A7801320A7087
:10091C00632BE3D90C4B00221A707047094A1378E9
:10092C000133DBB2137006490A7801320A70632B6B
:10093C00D4D900230B70034A1370CFE703000020B7
:10094C0001000020000000200200002008B53D4BF3
:10095C001B78012B1DD0022B2ED07BB1394B5B7831
:10096C00012B3BD0022B44D07BB3364B9B78012B15
:10097C0052D0022B5BD0002B45D008BD0020FFF7D6
:10098C0099FF0028EAD02F4B01221A70FFF7C6FE00
:10099C00E4E70020FFF78EFF0028DFD1294B00226F
:1009AC001A70294A13780133DBB21370032BD5D993
:1009BC00134600221A70D1E70020FFF77BFF0028B6
:1009CC00CCD1204B00221A70C8E70120FFF772FF30
:1009DC000028CAD01B4B01225A70C6E70120FFF732
:1009EC0069FF0028C1D1174B00225A70FFF76EFF28
:1009FC00BBE70120FFF75EFF10B9124B00225A70C3
:100A0C00FFF764FFB1E70220FFF754FF0028B4D0D2
:100A1C000C4B01229A70B0E70220FFF74BFF002825
:100A2C00ABD10023074A9370074A1370A5E7022045
:100A3C00FFF740FF0028A0D10023024A9370024A1E
:100A4C0013709AE7A000002003000020FEE7FEE7E9
:100A5C00FEE7FEE7FEE770477047704708B500F009
:100A6C00B3FA08BD08B5024800F09AF808BD00BFFB
:100A7C002C00002082B00A4B9A6942F001029A6164
:100A8C009A6902F001020092009ADA6942F08052EF
:100A9C00DA61DB6903F080530193019B02B070476C
:100AAC00001002400368B3F1804F00D0704700B5CE
:100ABC0083B003F50433DA6942F00102DA61DB69D1
:100ACC0003F001030193019B002211461C2000F04E
:100ADC00C3FE1C2000F0F8FE03B05DF804FB10B45C
:100AEC00036A046A24F001040462846924F0F00CA3
:100AFC004CEA021223F00A030B438261036210BC1E
:100B0C00704710B4036A046A24F010040462846908
:100B1C0024F4704C4CEA023223F0A00343EA011394
:100B2C008261036210BC7047836823F070030B432F
:100B3C0043F007038360704790F83D30DBB2012B24
:100B4C0023D1022380F83D300268D36843F00103BF
:100B5C00D36003680F4A93420CD0B3F1804F09D095
:100B6C00A2F59432934205D01A6842F001021A6041
:100B7C00002070479A6802F00702062A07D01A680C
:100B8C0042F001021A6000207047012070470020DB
:100B9C00704700BF002C014070477047704770478A
:100BAC0010B5044603681A6912F0020F11D0DA6806
:100BBC0012F0020F0DD06FF002021A6101230377BD
:100BCC0003689B6913F0030F70D0FFF7E6FF002357
:100BDC00237723681A6912F0040F12D0DA6812F026
:100BEC00040F0ED06FF004021A61022323772368DE
:100BFC009B6913F4407F5FD02046FFF7CEFF0023A4
:100C0C00237723681A6912F0080F12D0DA6812F0F1
:100C1C00080F0ED06FF008021A61042323772368A3
:100C2C00DB6913F0030F4ED02046FFF7B6FF00230D
:100C3C00237723681A6912F0100F12D0DA6812F0B9
:100C4C00100F0ED06FF010021A610823237723685F
:100C5C00DB6913F4407F3DD02046FFF79EFF002355
:100C6C00237723681A6912F0010F03D0DA6812F0A7
:100C7C00010F36D123681A6912F0800F03D0DA689D
:100C8C0012F0800F34D123681A6912F0400F03D090
:100C9C00DA6812F0400F32D123681A6912F0200F73
:100CAC0003D0DA6812F0200F30D110BDFFF774FFBB
:100CBC002046FFF773FF8AE72046FFF76DFF2046BB
:100CCC00FFF76CFF9BE72046FFF766FF2046FFF718
:100CDC0065FFACE72046FFF75FFF2046FFF75EFF9E
:100CEC00BDE76FF001021A612046FFF7C7FAC1E7B2
:100CFC006FF080021A61204600F02DF9C3E76FF007
:100D0C0040021A612046FFF74AFFC5E76FF0200248
:100D1C001A61204600F01EF9C7E700000368174A65
:100D2C00904206D0B0F1804F03D0A2F5943290429D
:100D3C0003D123F070034A681343104A904206D043
:100D4C00B0F1804F03D0A2F59432904203D123F43A
:100D5C004073CA68134323F080034A69134303604A
:100D6C008B68C3620B688362044B984202D00123E8
:100D7C00436170470B690363F9E700BF002C014026
:100D8C0040B310B5044690F83D30F3B1022384F81B
:100D9C003D30214651F8040BFFF7C0FF012384F8C6
:100DAC00463084F83E3084F83F3084F8403084F884
:100DBC00413084F8423084F8433084F8443084F86D
:100DCC00453084F83D30002010BD80F83C30FFF7F2
:100DDC0069FEDBE70120704710B4846824F47F4C73
:100DEC0042EA03220A4342EA0C02826010BC7047BA
:100DFC0090F83C30012B78D010B50446012380F8D4
:100E0C003C30022380F83D300268936823F47F4322
:100E1C0023F0770393600B68602B4CD029D8402BC0
:100E2C0054D00CD9502B22D1CA6849680068FFF7FE
:100E3C0056FE50212068FFF777FE002005E0202B9E
:100E4C000DD009D9302B0AD00120012384F83D3074
:100E5C00002384F83C3010BD0BB1102B05D1194682
:100E6C002068FFF761FE0020EFE70120EDE701208D
:100E7C00EBE7B3F5805F34D0B3F5005F0CD1CB68F2
:100E8C004A6889680068FFF7A7FF2268936843F4F3
:100E9C00804393600020D8E7702B24D1CB684A683C
:100EAC0089680068FFF798FF2268936843F077031E
:100EBC0093600020C9E7CA6849680068FFF721FE03
:100ECC0060212068FFF730FE0020BEE7CA68496841
:100EDC000068FFF704FE40212068FFF725FE002084
:100EEC00B3E70020B1E70120AFE702207047000014
:100EFC0090F83C30012B28D010B4012380F83C3002
:100F0C00022380F83D3003685A689C6822F0700C0C
:100F1C000A6842EA0C025A6003680D4A934206D0F2
:100F2C00B3F1804F03D0A2F59432934204D124F054
:100F3C0080044A6814439C60012380F83D300023F0
:100F4C0080F83C30184610BC70470220704700BF38
:100F5C00002C01407047704710B504460E4B1878B2
:100F6C004FF47A73B3FBF0F30C4A1068B0FBF3F058
:100F7C0000F0B8FC68B90F2C01D901200AE000225E
:100F8C0021464FF0FF3000F067FC054B1C60002041
:100F9C0000E0012010BD00BF040000200C00002068
:100FAC000800002008B5074A136843F010031360CB
:100FBC00032000F03FFC0F20FFF7CEFFFFF75AFD98
:100FCC00002008BD00200240034A1168034B1B7827
:100FDC000B441360704700BFA400002004000020E5
:100FEC00014B1868704700BFA400002082B0084B6A
:100FFC001B68084AA2FB03235B0A00FB03F3019363
:10100C0000BF019B5A1E0192002BF9D102B0704710
:10101C000C000020D34D6210002800F0F18170B557
:10102C0082B00446036813F0010F2CD0994B5B6817
:10103C0003F00C03042B1DD0964B5B6803F00C03E0
:10104C00082B12D06368B3F5803F41D0002B55D1EB
:10105C0003F1804303F504331A6822F480321A60DA
:10106C001A6822F480221A6037E08A4B5B6813F40A
:10107C00803FE7D0874B1B6813F4003F03D06368B5
:10108C00002B00F0BF81236813F0020F75D0814B49
:10109C005B6813F00C0F5FD07E4B5B6803F00C03A6
:1010AC00082B54D02369002B00F08A807A4B012244
:1010BC001A60FFF795FF0546764B1B6813F0020F7D
:1010CC0075D1FFF78DFF401B0228F5D903209EE157
:1010DC00704A136843F480331360636843B3FFF7BB
:1010EC007FFF05466B4B1B6813F4003FCBD1FFF71A
:1010FC0077FF401B6428F5D9032088E1B3F5A02FB6
:10110C0009D0644B1A6822F480321A601A6822F4EF
:10111C0080221A60E1E703F18043A3F53C331A689F
:10112C0042F480221A601A6842F480321A60D4E7C2
:10113C00FFF756FF0546574B1B6813F4003FA2D030
:10114C00FFF74EFF401B6428F5D903205FE1514B9C
:10115C005B6813F4803FA5D14E4B1B6813F0020F54
:10116C0003D02369012B40F04F814A4A136823F0C6
:10117C00F803616943EAC1031360236813F0080F95
:10118C0033D0A369002B5CD0434B0122C3F88024DD
:10119C00FFF726FF05463F4B5B6A13F0020F21D188
:1011AC00FFF71EFF401B0228F5D903202FE1394A17
:1011BC00136823F0F803616943EAC1031360DCE7A9
:1011CC00354B00221A60FFF70BFF0546314B1B68AD
:1011DC0013F0020FD1D0FFF703FF401B0228F5D903
:1011EC00032014E10120FFF701FF236813F0040F23
:1011FC0000F09680274BDB6913F0805F34D1254BD0
:10120C00DA6942F08052DA61DB6903F080530193B2
:10121C00019B0125214B1B6813F4807F26D0E368CA
:10122C00012B3DD0002B53D103F1804303F5043344
:10123C001A6A22F001021A621A6A22F004021A6275
:10124C0033E0154B0022C3F88024FFF7C9FE054696
:10125C00104B5B6A13F0020FC7D0FFF7C1FE401BA7
:10126C000228F5D90320D2E00025D3E70B4A1368F6
:10127C0043F480731360FFF7B3FE0646074B1B68FD
:10128C0013F4807FCBD1FFF7ABFE801B6428F5D91C
:10129C000320BCE0001002400000424200700040FD
:1012AC005F4A136A43F001031362E36833B3FFF739
:1012BC0097FE06465A4B1B6A13F0020F2FD1FFF70D
:1012CC008FFE801B41F288339842F3D903209EE0B5
:1012DC00052B09D0524B1A6A22F001021A621A6AC3
:1012EC0022F004021A62E0E74D4B1A6A42F0040243
:1012FC001A621A6A42F001021A62D6E7FFF770FE10
:10130C000646474B1B6A13F0020F08D0FFF768FE26
:10131C00801B41F288339842F3D9032077E0E5B97A
:10132C00E369002B72D03E4A526802F00C02082A84
:10133C0056D0022B17D03B4B00221A66FFF750FEFB
:10134C000446374B1B6813F0007F47D0FFF748FE6D
:10135C00001B0228F5D9032059E0314AD36923F048
:10136C008053D361DCE72F4B00221A66FFF738FE5F
:10137C0005462B4B1B6813F0007F06D0FFF730FEA1
:10138C00401B0228F5D9032041E0236AB3F5803FC6
:10139C001AD023494B6823F47413226A606A0243FF
:1013AC0013434B601F4B01221A66FFF719FE0446CC
:1013BC001B4B1B6813F0007F0ED1FFF711FE001BB7
:1013CC000228F5D9032022E0154A536823F4003390
:1013DC00A1680B435360DCE7002018E0002016E006
:1013EC00012B16D00E4B5B6803F48031226A9142BC
:1013FC0011D103F47013626A93420ED1002006E0FF
:10140C0001207047012002E0012000E0002002B022
:10141C0070BD0120FBE70120F9E70120F7E700BFD1
:10142C0000100240000042420F4B5B6803F00C02BC
:10143C00082A01D00D487047C3F383420C49885CDD
:10144C0013F4803F0BD0084B5B68C3F34043094A4D
:10145C00D35C064A02FB00F0B0FBF3F07047064B7E
:10146C0003FB00F0704700BF0010024000127A002E
:10147C00EC190008FC19000800093D00002800F0D8
:10148C00A08070B50D460446524B1B6803F0070351
:10149C008B420BD24F4A136823F007030B431360A4
:1014AC00136803F007038B4240F08D80236813F020
:1014BC00020F17D013F0040F04D0474A536843F4BB
:1014CC00E0635360236813F0080F04D0424A53685A
:1014DC0043F460535360404A536823F0F003A1680F
:1014EC000B435360236813F0010F31D06368012B59
:1014FC0020D0022B25D0384A126812F0020F64D08B
:10150C0035494A6822F0030213434B60FFF768FD2C
:10151C000646314B5B6803F00C036268B3EB820F39
:10152C0016D0FFF75DFD801B41F288339842F0D94D
:10153C00032045E0284A126812F4003FE0D1012054
:10154C003EE0254A126812F0007FD9D1012037E025
:10155C00204B1B6803F00703AB420AD91D4A1368E2
:10156C0023F007032B431360136803F00703AB420C
:10157C002DD1236813F0040F06D0174A536823F4B7
:10158C00E063E1680B435360236813F0080F07D046
:10159C00114A536823F46053216943EAC103536031
:1015AC00FFF742FF0C4B5B68C3F303130B4AD35C8E
:1015BC00D8400B4B18600B4B1868FFF7CDFC002084
:1015CC0070BD012070470120FAE70120F8E70120E7
:1015DC00F6E700BF0020024000100240001A00088D
:1015EC000C0000200800002070B582B00024A44636
:1015FC008BE07F4DAA4210D007D97E4DAA420CD069
:10160C0005F58035AA4208D015E0A5F58015AA424B
:10161C0003D005F57025AA4209D18A68002A00F08A
:10162C00BF80012A00F0B7804361082403E0A5F5D0
:10163C008015AA42F1D0BEF1FF0F00F2B38006462E
:10164C00BEF1FF0F00F2B0804FEA8C0233680F2519
:10165C00954023EA050304FA02F2134333604B6806
:10166C0013F0805F4FD0644B9A6942F001029A618B
:10167C009B6903F001030193019B4FEA9C02951CAB
:10168C005E4B53F825600CF003039D000F23AB4019
:10169C0026EA03065A4B984200F08C8003F58063CF
:1016AC00984200F0898003F58063984200F08080B6
:1016BC000323AB4033430232504D45F822304B6884
:1016CC0013F4801F7AD04F4A936843EA0E03936059
:1016DC004B6813F4001F77D04A4AD36843EA0E03D1
:1016EC00D3604B6813F4003F74D0464A536843EA06
:1016FC000E0353604B6813F4803F71D0414A13685A
:10170C0043EA0E0313600CF1010C0A6832FA0CF375
:10171C006CD0012303FA0CF302EA030E33EA020243
:10172C00F1D14A68122A3FF664AF122A83D801A578
:10173C0055F822F0271600088D1700089717000897
:10174C00A9170008431600084316000843160008A2
:10175C0043160008431600084316000843160008F9
:10176C0043160008431600084316000843160008E9
:10177C004316000843160008911700089D1700082F
:10178C00CC6858E7CC68043455E7CC68083452E789
:10179C00CC680C344FE7036108244CE700244AE77B
:1017AC00042448E7061D4BE7ACF1080292004DE714
:1017BC0002237EE700237CE701237AE7114A936832
:1017CC0023EA0E03936083E70E4AD36823EA0E03E1
:1017DC00D36086E70B4A536823EA0E03536089E70C
:1017EC00084A136823EA0E0313608CE702B070BD3D
:1017FC0000002210000031100010024000000140D7
:10180C0000080140000401408368194201D0012006
:10181C007047002070470AB10161704709040161EB
:10182C007047C36801EA030221EA030141EA02415D
:10183C0001617047074AD36823F4E0631B041B0C57
:10184C00000200F4E060034343F0BF6343F4003351
:10185C00D360704700ED00E000B5194BDB68C3F3B3
:10186C000223C3F1070CBCF1040F28BF4FF0040C8A
:10187C0003F1040EBEF1060F18D9033B4FF0FF3EE7
:10188C000EFA0CFC21EA0C0199400EFA03F322EA41
:10189C000303194300280BDB0901C9B200F16040B6
:1018AC0000F5614080F800135DF804FB0023E5E7C8
:1018BC0000F00F000901C9B2024B1954F4E700BF44
:1018CC0000ED00E014ED00E0002807DB00F01F0243
:1018DC00400901239340024A42F82030704700BF70
:1018EC0000E100E00138B0F1807F0BD24FF0E02333
:1018FC005861054AF02182F82310002098610722D4
:10190C001A6170470120704700ED00E0704700003D
:10191C00FFF7FCFF0B480C490C4A002302E0D4589B
:10192C00C4500433C4188C42F9D3094A094C00231F
:10193C0001E013600432A242FBD300F00FF8FEF773
:10194C0009FD70470000002010000020181A000844
:10195C0010000020A8000020FEE7000070B5002653
:10196C000C4D0D4C641BA410A64209D100F022F8BA
:10197C0000260A4D0A4C641BA410A64205D170BD6A
:10198C0055F8043B98470136EEE755F8043B984769
:10199C000136F2E7101A0008101A0008101A000895
:1019AC00141A000803460244934200D1704703F80E
:1019BC00011BF9E7F8B500BFF8BC08BC9E467047A0
:0C19CC00F8B500BFF8BC08BC9E46704790
:1019D8000040002000100000000C0140000C0140F5
:1019E800000C014002030405060708090A0B0C0D48
:1019F8000E0F10100102000000000000000000009F
:081A08000102030406070809AE
:041A10003101000898
:041A14000D010008B8
:101A18000507020301000000100000000024F40084
:040000050800191DB9
:00000001FF
